:1000000000308A0079280000FF00030E8301A10060
:100010007F08A0000A08A7008A01A00E0408A20019
:100020007708A3007808A4007908A5007A08A6003C
:10003000831383128B1E1E280B193D28220884006F
:100040002308F7002408F8002508F9002608FA001C
:1000500027088A00210E8300FF0E7F0E09000A1078
:100060008A100A1182073F3406345B344F346634F9
:100070006D347D3407347F346F34AB0A2B08013C78
:10008000031CAB012B0803194928013A0319512815
:1000900058282908AA00831685010130831285009B
:1000A00058282808AA00831685010230831285008B
:1000B0002A082F20AE008316860183122E088600A0
:1000C0000B110B118A111E282D3084008313000898
:1000D000031978280130F800F701F70B6D28F80BA9
:1000E0006C284A30F700F70B73287628800B6A28B3
:1000F000BA2803081F39830083168E158312A801BE
:10010000A901AA01AB0107309F00831383160108E0
:10011000C03906388100831290010030F800920047
:10012000003083169200073083129F008316050863
:1001300085000230F700F70B9B289E2800008312F1
:100140001F080C1383169F0183128B16C0308B047B
:10015000A90A2908093C0318AF28A901A80A2808F8
:10016000093C0318B528A801A9010430AC00FA30F5
:0C017000AD006428AC0BB728A828630081
:02400E00183F59
:00000001FF
;PIC16F628A
;CRC=5EF9  CREATED="03-nov-17 00:49"
